:100000000C9434000C9451000C9451000C94510049
:100010000C9451000C9451000C9451000C9451001C
:100020000C9451000C9451000C9451000C9451000C
:100030000C9451000C9451000C9451000C945100FC
:100040000C9451000C9451000C9451000C945100EC
:100050000C9451000C9451000C9451000C945100DC
:100060000C9451000C94510011241FBECFEFD8E026
:10007000DEBFCDBF11E0A0E0B1E0E2E3F2E002C0FC
:1000800005900D92A831B107D9F721E0A8E1B1E0C0
:1000900001C01D92AB31B207E1F70E9453000C94EE
:1000A00017010C940000E0E0F1E0A681B7819E9179
:1000B0008085892B8C93A081B1814E9181E090E065
:1000C0009C01028002C0220F331F0A94E2F7242B06
:1000D0002C93A381B4814E919C01058002C0220F14
:1000E000331F0A94E2F7242B2C93A185B2854E91FD
:1000F0009C01038402C0220F331F0A94E2F7242BD1
:100100002C93A485B5854E919C01068402C0220FD4
:10011000331F0A94E2F7242B2C93A785B0894E91C4
:100120009C01018802C0220F331F0A94E2F7242B9E
:100130002C93A081B1814C919C01028002C0220FBE
:10014000331F0A94E2F7242B2C93A381B4814C91A2
:100150009C01058002C0220F331F0A94E2F7242B72
:100160002C93A185B2852C91AC01038402C0440F6D
:10017000551F0A94E2F7409524232C93A485B58556
:100180002C91AC01068402C0440F551F0A94E2F77B
:10019000409524232C93A785B0894C919C0101881C
:1001A00002C0220F331F0A94E2F7242B2C93128AE9
:1001B00022E0238B24E0248B26E0258B2EE0268B67
:1001C00021853285A8E1B1E011963C932E932385D9
:1001D00012962C93A485B5852C91AC01068402C09F
:1001E000440F551F0A94E2F7409524232C93A785CA
:1001F000B0892C91018802C0880F991F0A94E2F7F8
:10020000822B8C93A8E1B1E041E050E012968C91F2
:100210001297ED91FC9111972081BA0102C0660FEF
:10022000771F8A95E2F7CB0182278083EFCFF8947E
:02023000FFCFFE
:1002320028000728000428000E28000628000028AD
:080242000005000000000000AF
:00000001FF
