:100000000C9434000C9451000C9451000C94510049
:100010000C9451000C9451000C9451000C9451001C
:100020000C9451000C9451000C9451000C9451000C
:100030000C9451000C9451000C9451000C945100FC
:100040000C9451000C9451000C9451000C945100EC
:100050000C9451000C9451000C9451000C945100DC
:100060000C9451000C94510011241FBECFEFD8E026
:10007000DEBFCDBF11E0A0E0B1E0E0E9F2E002C0F8
:1000800005900D92A831B107D9F721E0A8E1B1E0C0
:1000900001C01D92AB31B207E1F70E9453000C94EE
:1000A00046010C940000E0E0F1E0A381B4812C91C2
:1000B00081E090E0AC01058002C0440F551F0A9416
:1000C000E2F7409524232C93A381B4814C919C01A9
:1000D000058002C0220F331F0A94E2F7242B2C93D1
:1000E000A681B7813E912085232B2C93A081B181DD
:1000F0004E919C01028002C0220F331F0A94E2F746
:10010000242B2C93A381B4814E919C01058002C0C5
:10011000220F331F0A94E2F7242B2C93A185B2857A
:100120004E919C01038402C0220F331F0A94E2F710
:10013000242B2C93A485B5854E919C01068402C086
:10014000220F331F0A94E2F7242B2C93A785B08942
:100150004E919C01018802C0220F331F0A94E2F7DE
:10016000242B2C93A081B1814C919C01028002C070
:10017000220F331F0A94E2F7242B2C93A381B4811E
:100180004C919C01058002C0220F331F0A94E2F7B4
:10019000242B2C93A185B2852C91AC01038402C041
:1001A000440F551F0A94E2F7409524232C93A4850D
:1001B000B5852C91AC01068402C0440F551F0A94EA
:1001C000E2F7409524232C93A785B0892C910188D0
:1001D00002C0880F991F0A94E2F7822B8C93128A2F
:1001E00082E0838B84E0848B86E0858B8EE0868B37
:1001F00081859285A8E1B1E011969C938E938385C9
:1002000012968C930680F781E02D309771F08091E3
:10021000000190910101892B41F08091030190919F
:100220000401892B11F080818083E0E0F1E0A48556
:10023000B5852C9181E090E0AC01068402C0440FAA
:10024000551F0A94E2F7409524232C93A785B08983
:100250002C91018802C0880F991F0A94E2F7822B23
:100260008C93A8E1B1E041E050E012968C91129796
:10027000ED91FC9111972081BA0102C0660F771FA2
:100280008A95E2F7CB0182278083EFCFF894FFCFE6
:100290002B000328000428000E2B00022800002851
:0802A000000500000000000051
:00000001FF
